:1000000012C024C023C022C021C020C01FC01EC0F7
:100010001DC01CC01BC01AC019C018C017C016C014
:1000200015C014C013C011241FBECFE5D4E0DEBF3D
:10003000CDBF10E0A0E6B0E0E4E6F2E002C005903B
:100040000D92A239B107D9F7E1D00AC1D9CF20E08A
:1000500034E187FF02C0C49A01C0C498C59A932FA7
:100060009A95F1F7C598932F9A95F1F72F5F28305D
:1000700011F0880FEECF0895FF920F931F9394E035
:10008000F92EF82A8F2DE3DFC39A08EB1BE0C80195
:100090000197F1F7C3988F2D8B7FD9DFC39AC801E1
:1000A0000197F1F7C3981F910F91FF9008951F9347
:1000B000182F807FE1DF812F8295807FDDDF1F9108
:1000C00008951F93182F807F8160D6DF1295107FCF
:1000D000812F8160D1DF1F910895EF92FF921F93CE
:1000E00020ED37E04CE251E0CA010197F1F72150D1
:1000F0003040D1F783E0DBDF28E9E22E2AE3F22E5D
:10010000C7010197F1F783E0D2DF18EC812F8A95C0
:10011000F1F783E0CCDF812F8A95F1F782E0C7DF2A
:10012000812F8A95F1F788E2C2DF812F8A95F1F756
:1001300088E0BDDF8CE291E00197F1F781E0B7DF65
:10014000C7010197F1F786E0B2DF812F8A95F1F7B9
:100150008EE0ADDF812F8A95F1F780E8A8DF1A9550
:10016000F1F71F91FF90EF900895CF92DF92EF92F9
:10017000FF920F931F93CF93DF937C01162F862F4F
:100180008058803520F5862F92DF00E03CE2C32EB8
:1001900031E0D32E16C0103921F480EC88DF10EC4A
:1001A0000CC0103D51F480E29EE4F6013197F1F766
:1001B0000197D9F781E07BDF10E8888182DF0F5F4C
:1001C0001F5FE701C00FD11D8881882321F7DF91D0
:1001D000CF911F910F91FF90EF90DF90CF900895F6
:1001E000DF93CF93CDB7DEB72D813E816F817885C8
:1001F000CB01805890408035910510F4C90102C0B0
:10020000C90160E8B2DFCF91DF9108950F931F938A
:10021000CF93DF9388E387BB60DF81E652DF82E61E
:1002200050DF83E64EDF80E29EE42CE231E0F9010C
:100230003197F1F70197D9F700E610E0CCE2D1E071
:1002400000D0EDB7FEB712830183CADF80E29EE4DF
:100250000F900F90FE013197F1F70197D9F7F0CF8A
:04026000F894FFCF40
:100264005468697320697320612074727565203342
:1002740020776972652073657269616C204C434410
:1002840020647269766572206D656368616E697356
:020294006D00FB
:00000001FF
